:020000040800F2
:10000000F8480120A902000847480008333F0008CB
:1000100045480008310B000831510008000000007D
:10002000000000000000000000000000E5010008E2
:10003000150D00080000000041020008494C0008AE
:10004000C3020008C3020008C3020008C30200087C
:10005000C3020008C3020008C3020008C30200086C
:10006000C3020008C3020008C3020008C30200085C
:10007000C3020008C3020008C3020008C30200084C
:10008000C3020008C3020008C3020008C30200083C
:10009000C3020008C3020008C3020008C30200082C
:1000A000C3020008C3020008C3020008C30200081C
:1000B000C3020008C3020008C3020008C30200080C
:1000C000C3020008C3020008C3020008C3020008FC
:1000D000C3020008C3020008C3020008C3020008EC
:1000E000C3020008C3020008C3020008C3020008DC
:1000F000C3020008C3020008C3020008C3020008CC
:10010000C3020008C3020008C3020008C3020008BB
:10011000C3020008C3020008814D0008C3020008A2
:10012000650C0008C3020008C3020008C3020008EF
:10013000C3020008C3020008C3020008C30200088B
:10014000C3020008C3020008C3020008C30200087B
:10015000C3020008C3020008C3020008C30200086B
:10016000C3020008C3020008C3020008C30200085B
:10017000C3020008C3020008C30200080000000018
:10018000C3020008C3020008C3020008C30200083B
:10019000C3020008C3020008C3020008C30200082B
:1001A000ED410008C3020008C50B0008C3020008A7
:1001B000C3020008C3020008C3020008C30200080B
:1001C000C3020008C3020008DFF814D000F0A8FA48
:1001D00000F0D2F80048004789E6000800F0EBF98B
:1001E000F84801202D4B19680868B0E8F04F80F3FB
:1001F0000988BFF36F8F4FF0000080F311887047BC
:100200000000000008480068006880F308884FF08C
:10021000000080F3148862B661B6BFF34F8FBFF35E
:100220006F8F00DF00BF00BF08ED00E0DFF80C00BB
:10023000016841F470010160704700BF88ED00E083
:10024000EFF30980BFF36F8F144B1A681EF0100F85
:1002500008BF20ED108A20E9F04F106009B44FF07C
:10026000500072B680F31188BFF34F8FBFF36F8FCA
:1002700062B60FF095F84FF0000080F3118809BCCA
:1002800019680868B0E8F04F1EF0100F08BFB0EC16
:10029000108A80F30988BFF36F8F704778000020C1
:1002A000EFF3058070470000064880470648004786
:1002B000FEE7FEE7FEE7FEE7FEE7FEE7FEE7FEE716
:1002C000FEE7FEE72D4D0008C90100082DE9F05FAB
:1002D0000546002092469B468846064681464024B5
:1002E0001BE0284641464746224600F04EF9534659
:1002F0005A46C01A914110D311461846224600F0C2
:1003000035F92D1A67EB01084F46224601200021DE
:1003100000F02CF917EB00094E41201EA4F1010456
:10032000DFDC484631462A464346BDE8F09F40EAB6
:1003300001039B0703D009E008C9121F08C0042A63
:10034000FAD203E011F8013B00F8013B521EF9D24A
:100350007047D2B201E000F8012B491EFBD2704772
:100360000022F6E710B513460A4604461946FFF781
:10037000F0FF204610BD000070B5054C054D03E0B0
:10038000206820448047241DAC42F9D170BD000094
:10039000AC880108C08801082DE9F04107461546E0
:1003A0000E4610200EF030FA04000AD06760C4E94F
:1003B000026500F0FBF80168216004600020BDE8E0
:1003C000F0810120FBE72DE9FE4F81EA030404F0F0
:1003D000004421F0004100944FF0000B23F0004353
:1003E00050EA01045ED052EA03045BD0C3F30A541E
:1003F000C1F30A552C44A4F2F3340194A0FB025437
:10040000C1F3130141F48011C3F3130343F48013C8
:1004100001FB024400FB034E840A970A44EA81541C
:1004200047EA8357A4FB076802958D0A05FB0785F9
:100430004FEA932C04FB0C542705029D4FEA065803
:1004400047EA1637B5EB08056EEB070C870E920EE0
:1004500047EA811742EA8312A7FB0201B6EB0B01C0
:1004600064EB00042B0D43EA0C335E1844EB1C5084
:10047000DA465146E7FB0201C5F313044FEA0B339A
:1004800043EA14534FEA0432019C43EA0603A4F101
:100490000C040294009CCDE900B400F0F3F803B022
:1004A000BDE8F08F00200146F9E70EB540F2334178
:1004B00002910021CDE900110A460B4600F0E2F856
:1004C00003B000BD70B5C1F30A5201F0004500242D
:1004D000C1F3130140F2FF3341F480119A4201DA73
:1004E000002070BD40F233439A42A2F2334203DC53
:1004F000524200F04AF800E090402C43F1D04042D4
:1005000070BDC1F30A5210B5C1F3130140F2FF33BD
:1005100041F480119A4201DA002010BD40F23343C9
:100520009A42A2F2334203DC524200F02EF810BD90
:10053000904010BD01F0004330B421F0004150EA7A
:10054000010206D00A0DA2F56072C1F31301002A60
:1005500002DC30BC00207047440F44EAC104C100F3
:10056000E01830BC00EBC25000F046B8202A04DB93
:10057000203A00FA02F1002070479140C2F12003B6
:1005800020FA03F3194390407047202A04DB203AF5
:1005900021FA02F00021704721FA02F3D040C2F1A3
:1005A00020029140084319467047000000487047F8
:1005B0006C02002070472DE9F0410646FFF7F6FF78
:1005C0008046454613E016B1E068B0420ED120687F
:1005D0002860D4E90101D8F80070884720460DF062
:1005E0003BFFD8F80000B842EBD100E025462C686C
:1005F000002CE8D1BDE8F0810029A8BF7047401C5D
:10060000490008BF20F00100704710B4B0FA80FC28
:1006100000FA0CF050EA010404BF10BC704749B165
:10062000CCF1200421FA04F411FA0CF118BF0121D5
:1006300021430843A3EB0C01CB1D4FEA00614FEAB5
:10064000102042BF002010BC704700EBC350104484
:100650000029A4BF10BC7047401C490008BF20F00F
:10066000010010BC704710B5141E73F1000408DAC5
:10067000401C41F1000192185B411A4301D120F066
:10068000010010BD2DE9F04D92469B4611B1B1FA23
:1006900081F202E0B0FA80F220329046FFF766FF66
:1006A00004460F4640EA0A0041EA0B0153465A4607
:1006B000084313D0114653EA010019D0C8F1400293
:1006C0005046FFF762FF05460E46504659464246E1
:1006D000FFF74CFF084305D0012004E020463946CF
:1006E000BDE8F08D0020054346EAE0762C43374311
:1006F0000A986305E40AA0EB08000022FD0A44EA18
:1007000047540A3002D500200146E9E701051019D7
:100710006941DDE9084500196941BDE8F04DA2E7EE
:10072000064C074D06E0E06840F0010394E807003E
:1007300098471034AC42F6D3FFF74AFD38880108D9
:1007400058880108704770B58C1810F8015B15F0D7
:10075000070301D110F8013B2A1106D110F8012B33
:1007600003E010F8016B01F8016B5B1EF9D12B0758
:1007700005D40023521E0DD401F8013BFAE710F80E
:10078000013BCB1A921C03E013F8015B01F8015BFB
:10079000521EF9D5A142D8D3002070BD10B5014634
:1007A000806B026C12F0500F05D0026CD20626D579
:1007B00000F019FC10BD016C41F400710164016886
:1007C0008A6812F0405F17D18269AAB9CA6A12F426
:1007D000700F02D08A6852050ED44A6822F02002B7
:1007E0004A60016C21F480710164016CC90403D476
:1007F000016C41F00101016400F0EEFB10BD806B63
:10080000C26C0846BDE81040104710B5806B40210F
:100810000164416C41F00401416400F0E4FB10BD4F
:1008200010B5806B00F0DEFB10BD00004A496FF090
:10083000706210B5D1F8043323F44033C1F80433A7
:10084000D1F8043344682343C1F8043301684B688A
:1008500023F480734B60016803694C6844EA032306
:100860004B6001684B6823F040734B6001688468FB
:100870004B6823434B6001688B6823F400638B60F3
:100880000168C4688B6823438B60816AD142016828
:100890008A6822F070628A6001680DD0836A8A6873
:1008A0001A438A6001688A6822F040528A600168AF
:1008B000C36A8A681A4302E08A6822F040528A605A
:1008C00001688A6822F002028A60016882698B6886
:1008D00043EA42028A6090F820100029016811D092
:1008E0001E4A4B6843F400634B6001684B6823F475
:1008F00060434B600168446A4B6802EB4432134327
:100900004B6003E04A6822F400624A600168144BBD
:10091000CA6A22F47002CA620168848BCA6A03EB55
:1009200004531A43CA6201688A6822F400728A601A
:10093000016890F830208B6843EA42228A6001689F
:100940008A6822F480628A60016840698A6842EAA3
:100950008020886010BD00000020014000E0FFFF03
:100960000000F0FF70B590B04FF440640020A20387
:1009700007944FF480760B90EB250095710103915D
:10098000CDE908020C900A230D900EAA0F9069463B
:100990000E900548CDE9053602F0A0F9002800D0F8
:1009A000012010B070BD0000BC12002070B5194CC1
:1009B00017482060204602F024F9E0B900212046C3
:1009C00000F02AF84FF08071002091FAA1F14FF465
:1009D000A066B1FA81F1491EC4E905600423E06113
:1009E0001025206201222046C4E90351C4E90123F5
:1009F00002F01CF908B1012070BD064804F089F826
:100A000020B9044804F040F80028F5D0042070BD57
:100A1000001000A0BC120020414870B586B00168EB
:100A200041F002010160006800F0020005903C48BE
:100A30002038016841F002010160016821F00201E3
:100A4000016037480838016841F00201016001681F
:100A500001F002010591016841F0020101600168A5
:100A600001F002010591016841F00801016001688F
:100A700001F008010591016841F008010160016879
:100A800001F008010591016841F010010160016861
:100A900001F010010591016841F008010160006852
:100AA000022101221F4E00F0080005904020032380
:100AB0000A248DE81F006946304601F01FF9002026
:100AC000694604250095092404940290304601F0FB
:100AD00015F9154E6802694604940090304601F0FD
:100AE0000DF9A802694604940090304601F006F919
:100AF0000E4869460095049401F000F9E802694641
:100B000004940090304601F0F9F800220F215C2097
:100B100001F032FF5C2001F022FF06B070BD000042
:100B20003838024000040240000C0240001002402D
:100B3000FEE700001D4A30B5136823F0010313607F
:100B40001B4A1368C3F30B140123A4F54065243D2D
:100B500006D01268C2F30B12A2F54064273C10D1F4
:100B6000144A12686AB9144A14684FF08A45B5EB02
:100B7000045F11D01268C2F30B02A2F58064833CBB
:100B80000AD00E4A93609368002BFCD11060106865
:100B9000884209D0002030BD094A13601368002B39
:100BA000FCD1074A083AF1E7012030BD002000E0FF
:100BB00000ED00E0002004E00010005C0030024086
:100BC000084C0258014800F0A9BC00001810002091
:100BD000F0B5059C44EA034503685C6C04F04044AE
:100BE0002C435C640368DA634268B2F5403F02D08C
:100BF0000068C160F0BD01F47F42856801F47F04A4
:100C0000224301F07F4301F47F0701F47F46CCB219
:100C1000BDB1012D16D001F47F02C1F3C401D20C85
:100C2000022D11D0032D14D0320B390D15011A0FDE
:100C300045EA0123210943EA02320A43006882633C
:100C4000F0BD1A432243F9E7B30A5B0143EAC2222B
:100C5000F3E7F40ADB0F640144EA822242EAC3327A
:100C6000EBE70000014800F0ADBD00001C120020C1
:100C700001681823CAB2103AB2FBF3F2054B6FF3C6
:100C80000901032A9B5CC36500D9091D81650846DB
:100C900070470000E002010810B583694FF0C0748E
:100CA000826A0146002053B1B3F5005F15D072B1DE
:100CB000012A0CD0022A0AD0032A09D104E01AB171
:100CC000012A06D0022A03D1C96AC90100D5012030
:100CD00010BDC96AA142FAD010BD002AF7D0012A7E
:100CE000F2D0022AF3D0032AF3D010BD30B5046845
:100CF000256825F480252560046863608368402B9F
:100D0000036803D099600068C26030BD9A600068D3
:100D1000C16030BD70477047F0B5D1E90125D1E918
:100D20000343D1E905762A43D1F800C044EA03041D
:100D3000D1E9073542EA0402496A42EA0702BCF1F6
:100D4000010F42EA060208D004681A432A430A4304
:100D5000E30BDB031A4302600BE0066844682B4395
:100D600026F4F84529430B4303606FF30E04224336
:100D700042600020F0BD426942EA41014161002029
:100D8000704738B591E81C00C9686FF01F051A4319
:100D900005EB441444EA41210A4300920261002019
:100DA00038BD00002DE9F043914691E81C006FF03A
:100DB0000F05521E2E0105EB03131A430B7E06EBA3
:100DC00004268C8A2F034FEA054C0D8A32434FF0DC
:100DD0007F4808EB0366CB68B9F1010F07EB0545C7
:100DE0000CEB04540CD081683F1107EB03331A431A
:100DF0002A432243324301F070410A43826011E0EA
:100E00008168DFF828C0C7681B03A3F5805323431C
:100E10002A4301EA0C0132430B43836007F070441C
:100E20002243C2600020BDE8F0830000FF0F0FFFE7
:100E3000F8B50025009590F83C20012A1DD001222C
:100E400080F83C20604C0723D6070A68092A22D97B
:100E5000B24220D007680A3A02EB420CFA6803FA61
:100E60000CF39A43FA600A68A24208D102680B7A2E
:100E7000D76847EA0363D36022E00220F8BD076821
:100E80000A3A8B6802EB4202D7F80CC0934043EA5F
:100E90000C03FB6014E0076802EB4202D7F810C0B5
:100EA00093402CEA030CC7F810C003680F788A68D7
:100EB000D3F810C007EB4707BA4042EA0C021A61A8
:100EC0004A681F23072A16D20768521E02EB820CBB
:100ED0007A6B03FA0CF39A437A6302680F790B88F2
:100EE0007F1ED2F834C09BB207EB8707BB4043EAB2
:100EF0000C0353632DE007680D2A15D2D21F02EBB5
:100F0000820C3A6B03FA0CF39A433A6302680F7946
:100F10000B88FF1FD2F830C09BB207EB8707BB409E
:100F200043EA0C03136314E00D3A02EB820CFA6AF5
:100F300003FA0CF39A43FA6202680F790B880D3FAB
:100F4000D2F82CC09BB207EB8707BB4043EA0C03E7
:100F5000D3621E4A0368934208D10B68B34205D19D
:100F6000D2F8043323F44003C2F8043303689342F5
:100F700008D10B68122B05D1D2F8043343F4800357
:100F8000C2F80433036893421AD10B68A34201D01C
:100F9000112B15D1D2F8043343F40003C2F8043303
:100FA0000968A1420CD10A490A4A0968B1FBF2F169
:100FB00001EB8101490000E0491E00910029FBD1AD
:100FC00080F83C500020F8BD1200001000200140C5
:100FD0007400002040420F00014800680DF06CBC16
:100FE0002C000020704770470068C06C704770B5D7
:100FF00004004FF0000503D0206C002610B107E07C
:10100000012070BD204600F01DF8666484F83C6045
:10101000206CC00610D4206C20F4885040F00200F0
:1010200020642046FFF702FC6664206C20F002007A
:1010300040F00100206400E0012584F83C6028466F
:1010400070BD0000F0B587B0064614216846FFF772
:1010500087F91D493068884233D11C48016841F442
:1010600080710160006800F48070059017481438A2
:10107000016841F00101016000680025032100F0D2
:101080000100059001208DE823001148694600F019
:1010900035FE104C10480115C4E900058715A56000
:1010A000CB00C4E90351C2142046C4E90775656248
:1010B000C4E9052300F056FC08B1FFF72CFEB46329
:1010C000A66307B0F0BD0000002001404438024094
:1010D000000002401C12002010640240F8B50D46CA
:1010E00004460021009190F83C00012807D001201F
:1010F00084F83C0020688368DB0702D011E00220FE
:10110000F8BD8668364B46F00106866035480068B3
:10111000B0FBF3F000EB400000E0401E0090002820
:10112000FBD120688368DB0758D0236C40F201664E
:10113000B34343F4807323644068400505D5206CB5
:1011400020F4005040F480502064206CC00404D58A
:10115000606C20F00600606400E061646FF02200C3
:1011600084F83C10A36B2049D963A36B1F49196411
:10117000A36B1F49D964216808602068416841F069
:10118000806141602068816841F4807181602168DC
:101190001346A06B2A464C3100F056FC1549D1F895
:1011A0000403C006206811D0884207D1826812F07B
:1011B000405F03D1826842F080428260D1F804032C
:1011C000C0060BD40C492068884207D1816811F011
:1011D000405F03D1816841F0804181600020F8BD0B
:1011E00040420F00740000209D07000821080008FD
:1011F0000B0800080020014000220140F0B5012644
:10120000044600201E2301E05B1E05D303F01F07E8
:1012100006FA07F50D42F7D072B1082A0AD0102A53
:1012200005D0182A01D1072B06D30120F0BD082BC9
:10123000FBD201E0102BF8D22368596121688B683A
:1012400023F0180313438B60F0BD000010B50400B9
:1012500010D0607F20B900202077204600F032F8BF
:1012600021790220607739B1D4E902122046FFF7D4
:10127000C5FF48B1012010BD2168114848612068B0
:10128000816821F0180181606079A0B1216820692E
:101290000861012220686369816821F060011943B7
:1012A00081602068A369816821F080011943816011
:1012B0006277002010BD21684FF0FF30E8E70000A2
:1012C000B71DC10408B500680649884208D1064820
:1012D000016841F480510160006800F48050009082
:1012E00008BD000000300240303802402DE9F041D6
:1012F00004460068016821F00501091D016000F045
:10130000F5FD002605464FF47A770FE000F0EEFD7C
:10131000401BB8420AD9E16B032084F8386041F0E1
:101320002001E16384F83900BDE8F081206800689D
:10133000C007EBD120680121026822F40C52026040
:1013400084F83910002084F83860EDE7F8B50446D9
:101350001D46DDE9063094F83860012E18D00127CB
:1013600084F83870022684F83960266872612A464B
:1013700000902046FFF72CFC2068016841F40C51D6
:1013800001602068016841F0010101600020F8BDA2
:101390000220F8BD704700002DE9F04104460068C6
:1013A0000129016800F1240541F00401016001D127
:1013B00025681C3500F09AFD002706464FF47A7820
:1013C00010E000BF00F092FD801B40450AD9E16BA0
:1013D000032084F8387041F02001E16384F839007B
:1013E000BDE8F08128688006ECD4206801210268FD
:1013F00022F46452026084F83910002084F83870B6
:10140000EEE7000070B590F83820012A23D0244C74
:10141000012680F83860022300EB011280F8393091
:10142000158CD36918320A2B43EA054515D0092BD0
:1014300013D0137B45EA0363056899B1E969A143B9
:101440001943E961016813680B6151680A291BD0CF
:10145000092919D01DE0022070BDD36803F07F4335
:101460002B43E9E7696AA14319436962016813687C
:101470008B6151680A2901D009290AD1D168026813
:1014800021F07F41916204E0D168026821F07F4140
:101490001162002180F8396080F83810084670BD6C
:1014A0000F0003FF70B5040011D01B480068000254
:1014B00017D520680168C90703D02046FFF716FF3B
:1014C00004E0416A890604D5002106E048B1012004
:1014D00070BDC069800604D501212046FFF75CFF7E
:1014E000F4E7216800253F200D60216888602068AE
:1014F0000561206885612068C561206845622068B3
:101500004563204600F0C6F8E56384F839500020B2
:1015100084F8385070BD0000303802402DE9F047A3
:101520000446006800274FF004084FF001094668A0
:101530000568F10714D0E90512D5036823F4807318
:101540000360E06B40F00100E0632068C0F80890A1
:1015500084F8398084F83870616909B12046884779
:10156000B00615D5A80413D520682022036823F4FB
:101570000053036020688260E06B40F00200E0638B
:1015800084F8398084F83870616909B12046884749
:10159000300715D5280513D520680822036823F4E1
:1015A0000063036020688260E06B40F00400E06349
:1015B00084F8398084F83870616909B12046884719
:1015C00070070CD568050AD52068026822F480628D
:1015D00002602068C0F80880204600F05AF8B00782
:1015E00013D5A80511D520680222036823F40073DF
:1015F000036020688260E06BE06384F8399084F8CF
:101600003870216909B120468847F00612D5E804F0
:1016100010D52068016821F48051016022681021F2
:101620009160E16BE16384F83990204684F838706A
:10163000FFF7B0FEBDE8F08770B5040004D094F861
:101640003900002510B106E0012070BD204684F865
:10165000385000F031F8022084F83900D4E9000352
:101660000121026822F440321A4302602068A36814
:10167000426B22F007021A4342632068E368026C5F
:101680006FF30D021A430264E56384F839100020F9
:1016900070BD704700680649884207D10548016857
:1016A00021F4000101605A2001F048B970470000A0
:1016B00000B002403038024008B500680B4988424B
:1016C00012D10B48016841F400010160006800225A
:1016D000052100F4000000905A2001F04DF9BDE80A
:1016E00008405A2001F03BB908BD000000B002409C
:1016F00030380240F8B50446069894F83850012D69
:1017000015D0012684F83860022584F839500090FD
:101710002046FFF75DFA2068016841F40C51016032
:101720002068016841F0010101600020F8BD02203D
:10173000F8BD2DE9F041876D044600F0D7FB064661
:1017400094F835000025022806D08020606501202D
:1017500084F83450BDE8F0812068016821F016015A
:1017600001602068416921F080014161206C08B965
:10177000A06C20B12068016821F008010160206898
:10178000016821F0010101600CE000F0AFFB801B5B
:10179000052807D920216165032084F8345084F896
:1017A0003500D7E720680068C007EED194F85C20C8
:1017B0003F2001219040B86084F8345084F83510FF
:1017C0000020C7E72DE9F84304464FF00009644BB9
:1017D0000820CDF800904FF41652A56D94F85C10D7
:1017E0001B682E68B3FBF2F700FA01F131420FD00B
:1017F00021680A6852070BD50A6822F004020A60C1
:1018000094F85C108840A860606D40F0010060654D
:1018100094F85C104FF0010808FA01F0304208D04B
:1018200021684969090604D5A860606D40F002008E
:10183000606594F85C1004208840304208D021682C
:101840000968890704D5A860606D40F004006065F0
:1018500094F85C1010208840304218D02168096844
:10186000090714D5A86020680168490304D50068F9
:10187000000308D5A16C07E00168C90503D401681D
:1018800021F008010160216C09B12046884794F8D5
:101890005C1020208840304231D021680968C90698
:1018A0002DD5A86094F8350005282068016806D079
:1018B000490347D5006800031DD4616C1CE021F08A
:1018C000160101602068416921F080014161206CAE
:1018D00008B9A06C20B12068016821F008010160FE
:1018E00094F85C303F229A40AA6084F8349084F8DF
:1018F0003580216D1FE0E16B09B120468847606D9E
:1019000000282BD0606DC00714D0052084F8350066
:101910002068016821F0010101600098401C0090DE
:10192000B84203D820680068C007F6D184F8349024
:1019300084F83580E16C002910D001B02046BDE864
:10194000F04308470168C905D5D4036823F01003A4
:10195000036084F8349084F83580CCE7BDE8F883E0
:10196000740000202DE9F047044600F0BFFA054658
:1019700064B14FF0000984F83490022184F83510E6
:101980002068016821F0010101600EE00120BDE83E
:10199000F08700BF00F0AAFA401B052805D92021D6
:1019A0006165032084F83500F1E720680068C0070E
:1019B000F0D1D4E90020D4E90251D4E9043C284311
:1019C00004F1180519430843116895E8E00140EA5D
:1019D0000C001C4B2843194040EA060040EA07006F
:1019E000B8F1040F40EA010003D1D4E90B13194305
:1019F0000843106020680126656A4069042D20F0C4
:101A0000070045EA00050CD1D4E90A01054341B1BC
:101A10002046FFF741F920B14020606584F8356029
:101A2000B4E7206845612046FFF722F994F85C305E
:101A30003F229A408260C4F8549084F835600020B8
:101A4000A5E700003F8010F02DE9F041044690F832
:101A5000340000250128A66D0ED094F835C001276A
:101A6000002084F83470BCF1010F07D0022584F8FF
:101A700034002846BDE8F0810220FBE7022784F805
:101A8000357060652046FFF731F994F85C103F200F
:101A90008840B0602068016841F01601016020684C
:101AA000416941F080014161206C20B120680168EA
:101AB00041F0080101602068016841F00101016006
:101AC000D7E7000070B5044600F010FA0546601C28
:101AD00002D004480078044400F008FA401BA042F9
:101AE000FAD370BD68000020F0B587B014216846B5
:101AF000FEF736FC2148016800293CD10121016034
:101B00001F48016841F001010160006802240025BE
:101B1000694600F00100059003264FF683700C27FC
:101B20008DE8F100174800F0E9F848F233106946F3
:101B30008DE8F100144800F0E1F84CF203706946BA
:101B40008DE8F100114800F0D9F84FF63F006946E2
:101B50008DE8F1000E4800F0D1F8282069468DE8A4
:101B6000F1000C4800F0CAF8082069468DE8F10041
:101B7000094800F0C3F807B0F0BD000030000020B5
:101B8000383802400010024000180240000C0240A9
:101B900000140240001C0240000802402DE9F04FF2
:101BA000DFF828E100224FF001094FF00F0A00BFD3
:101BB00009FA02F401EA0403A3427DD122F00306EC
:101BC00076444FEA827CD6F808784FEA1C7CDFF82E
:101BD00000810AFA0CFB40450BEA070501D10027FA
:101BE0002DE03C4FB84201D1012728E03A4FB842DE
:101BF00001D1022723E0394FB84201D103271EE06B
:101C0000374FB84201D1042719E0364FB84201D10D
:101C1000052714E0344FB84201D106270FE0334FB7
:101C2000B84201D107270AE0314FB84201D1082755
:101C300005E0304FB84201D1092700E00A2707FA32
:101C40000CF7AF421CD12C4DD5F800C02F1D2CEA4B
:101C5000030CC5F800C03D6807F1040C9D433D60CE
:101C6000DCF800700CF104059F43CCF800702F687D
:101C70009F432F60D6F8085825EA0B05C6F8085888
:101C800006680323D7084FEA42084FEA427C03FA6A
:101C900008F34FEADC6C9E4306600AFA0CF500EB91
:101CA00087073E6AAE433E62C5689D43C56045688E
:101CB000A5434560846800E001E09C438460521CB9
:101CC000102AFFF475AFBDE8F08F0000003001402E
:101CD000000002400004024000080240000C0240E4
:101CE000001002400014024000180240001C024094
:101CF0000020024000240240003C01402DE9F84F42
:101D000000224FF001094FF0030A4FF00F0E00BF01
:101D10000B6809FA02F42340A34270D14D68012DEB
:101D200005D0022D03D0112D01D0122D11D18568BF
:101D30005700CE680AFA07FC25EA0C05BE402E4380
:101D4000866045680E79A543C6F3001696402E437B
:101D50004660C56856008F680AFA06F4A543B74086
:101D60002F43C7604D68022D01D0122D12D1D50826
:101D70000F694FEA427C00EB8505AB462D6A4FEABE
:101D8000DC6C0EFA0CF807FA0CF725EA08052F436D
:101D9000CBF820700D79076805F00305A743B5401F
:101DA0003D4305604C68E40074D53D4C256845F41E
:101DB00080452560246822F00307960704F48044D8
:101DC0000094384C360F2744D7F80848DFF8D8C0BD
:101DD0000EFA06F5604524EA050401D100252EE03F
:101DE000324DA84201D1012529E0314DA84201D14F
:101DF000022524E02F4DA84202D103251FE049E02F
:101E00002D4DA84201D1042519E02C4DA84201D145
:101E1000052514E02A4DA84201D106250FE0294DE1
:101E2000A84201D107250AE0274DA84201D1082583
:101E300005E0264DA84201D1092500E00A25B5405C
:101E4000234E2543C7F808584D683468ED0324EA4B
:101E5000030400D51C431E4D34602D1D4E682C68B4
:101E6000B60324EA030400D51C43194E2C6008363F
:101E70004D683468ED0224EA030400D51C43144D78
:101E800034600C354E682C68B60224EA030400D591
:101E90001C432C60521C102AFFF43AAFBDE8F88FA7
:101EA000443802400030014000000240000402407B
:101EB00000080240000C02400010024000140240E2
:101EC00000180240001C0240002002400024024092
:101ED000003C014042690A4200D009048161704718
:101EE0000AB1816170470904FBE70000014880687E
:101EF000704700006800002030B590F84120202A8B
:101F000024D190F84020012A20D0012380F84030CD
:101F1000242280F84120202300240268156825F03F
:101F2000010515600268156825F480551560026882
:101F300015680D43156001680A6842F001020A60E5
:101F400080F8413080F84040002030BD022030BD94
:101F500030B590F84120202A22D190F84020012A63
:101F60001ED0012380F84030242280F84120202414
:101F700000250268136823F00103136002681368E8
:101F800023F4706343EA0121116001680A6842F09A
:101F900001020A6080F8414080F84050002030BDC6
:101FA000022030BD10B5040014D0242084F8410074
:101FB0002068016821F001010160204600F0C6F9A7
:101FC0000020606484F84100206384F8420084F8B3
:101FD000400010BD012010BD70B5040004D094F87D
:101FE0004100002510B106E0012070BD204684F8B4
:101FF000405000F0C7F9242084F8410020680168AF
:1020000021F001010160D4E9001020F07060086146
:102010002068816821F400418160E068216801281E
:10202000A06806D040F404408860E068022803D02D
:1020300006E040F40040F7E721684FF40060486094
:1020400020212068114A4368134343602068C26816
:1020500022F40042C26054F8106B0DCC104340EAE9
:102060000320F06054F81C3CD4E9000210431860CF
:1020700054F81C0D026842F001020260656484F8A5
:102080004110256384F84250002070BD008000029A
:102090002DE9FF4F83B0044690F841009A469346DD
:1020A000DDE91087DDF84890202874D15FEA080048
:1020B00014D09FB194F8400001286CD0012084F81E
:1020C0004000FFF713FF0122064619230090D103B9
:1020D000204601F0FFFF002871D103E04FF40070AB
:1020E00060646CE00025C4F82480222184F841104B
:1020F000402084F8420065646785534665635A460C
:1021000004992046CDE9009601F06AFF10B184F8E9
:10211000405054E0618DFF2734484FF08078FF290C
:102120004FF0007A04D927853A464346009005E0EF
:10213000618D53462185009094F82820204604990B
:1021400001F0B2FF00224B4604212046009601F028
:10215000C1FFA0BB2068616A406A0870606A401CC9
:102160006062208D401E81B22185608D401E608599
:10217000608DD8B1D1B900224B468021204600960F
:1021800001F0A8FFD8B9608DFF2805D927853A4608
:102190004346009506E026E0608D53462085009575
:1021A00094F828202046049901F07EFF608D0028D5
:1021B000C8D132464946204601F0B9FF18B1012086
:1021C00007B0BDE8F08F21682020094AC861216866
:1021D0004B6813404B6084F8410084F84250002063
:1021E00084F84050ECE70220EAE700000024008079
:1021F00000E800FE2DE9FF4F83B0044690F841004F
:102200009A469346DDE91087DDF84890202871D181
:102210005FEA080014D09FB194F84000012869D00B
:10222000012084F84000FFF761FE012206461923D1
:102230000090D103204601F04DFF00286ED103E04D
:102240004FF40070606469E00025C4F82480212107
:1022500084F84110402084F8420065646785534645
:1022600065635A4604992046CDE9009601F0EAFEDE
:1022700010B184F8405051E0608DFF274FF0807816
:10228000FF284FF0007A04D927853A464346009547
:1022900005E0608D53462085009594F8282020465F
:1022A000049901F001FF32464946204601F066FFDD
:1022B000A0BB606A216800788862606A401C606226
:1022C000608D401E6085208D401E80B22085618D0E
:1022D000D9B1D0B900224B4680212046009601F0AA
:1022E000F9FED8B9608DFF2805D927853A464346BF
:1022F000009506E026E0608D53462085009594F811
:1023000028202046049901F0CFFE608D0028CAD114
:1023100032464946204601F00AFF18B1012007B0B5
:10232000BDE8F08F20682021074AC161206843681A
:102330001340436084F8411084F84250002084F830
:102340004050ECE70220EAE700E800FE10B5006824
:10235000094988420FD10948016821F40001016050
:10236000074C80212046FFF719FCA1152046BDE847
:102370001040FFF713BC10BD005C00404038024025
:10238000001C024010B586B0044614216846FDF7D3
:10239000E7FF1249206888421ED11148016841F0C8
:1023A0008001016000681221012200F08000059088
:1023B000032304244FF4C0708DE81F0009486946C8
:1023C000FFF79CFC06481030016841F400010160F1
:1023D000006800F40000059006B010BD005C0040ED
:1023E00030380240001C02400248816802781144E3
:1023F0008160704768000020094810B5016841F409
:1024000000710160016841F480710160032000F0F7
:10241000D3FA002000F006F800F074FA002010BD96
:10242000003C024010B500220146362088B000F082
:10243000A3FA362000F093FA1348016841F0100126
:102440000160006805A900F010000690684601F0E0
:10245000EFF801F00DF90D49400000220C4CB0FBE3
:10246000F1F10C4840F2E7330460C0E90332491E41
:10247000C0E9011201F0F2FB10B1012008B010BD5B
:10248000044801F007FCF9E74038024040420F00E1
:10249000001000407C1200202DE9F041044690F825
:1024A000A00016460F4601281DD0012584F8A05033
:1024B000022084F8A10006EB860000EBC60034225F
:1024C00004EB80003830FDF732FF324639462046B3
:1024D00001F092FE216800204D6284F8A15084F83A
:1024E000A000BDE8F0810220FBE770472DE9F04134
:1024F0000446006800274FF00408856B466B6907A7
:1025000015D5710713D5426B22F00402426320688F
:10251000C0F83C80D4F8A40040F00100C4F8A40046
:1025200084F8A180204684F8A070FFF7DEFFA8079A
:1025300016D5B00714D520680222436B23F002039E
:1025400043632068C263D4F8A40040F00200C4F8DA
:10255000A40084F8A180204684F8A070FFF7C5FF8E
:1025600005EA06004FF00108C0070ED021684A6B4B
:1025700022F001024A632168C1F83C8084F8A180FE
:10258000204684F8A07000F091F8280710D5300795
:102590000ED520680822436B23F0080343632068AC
:1025A000C26384F8A180204684F8A07000F05AF934
:1025B000BDE8F0812DE9F041040004D094F8A100B9
:1025C000002518B107E00120BDE8F081204684F81D
:1025D000A05000F097F83448022184F8A11001229D
:1025E00002CC8B6923F070438B6194E84A00194355
:1025F000E3681E4354F8043D31439E6931439961B9
:1026000021688B6803408B602168A68AA7698B6864
:102610003B4343EA06438B602168CB680340CB60B1
:102620002168A38B276ACE683E4346EA0346CE6004
:1026300021680B6903400B612368A68CA76A19699E
:10264000394341EA0641196121684B6903404B61F6
:102650002068A38D266B4169314341EA0341416102
:10266000236894F8351094F83600DE6A000406F00A
:102670007F46DE62236840EA012094F83460D96A1C
:1026800031430143D9622068416B41F00601416347
:102690002068816941F001018161C4F8A45084F887
:1026A000A120002090E7000000F800F0124910B5CA
:1026B000124A134C0B6811888B4212D1518800F0DA
:1026C000AFF8206890F86610491C80F8661003F097
:1026D00027FC206805F0D8FBBDE81040002006F07C
:1026E000D1BB00F09DF8002006F0CDFB206801680A
:1026F0008969BDE81040084740680140100000208B
:102700005402002070B586B0044614216846FDF7D7
:1027100027FE3C492068884272D13B48016841F05D
:1027200080610160006800F08060059036481438D0
:10273000016841F010010160016801F0100105918C
:10274000016841F400710160016801F400710591B4
:10275000016841F480610160016801F480610591C4
:10276000016841F040010160016801F040010591FC
:10277000016841F480710160006800240E266946FA
:1027800000F4807005901020009002251F48CDE9CC
:102790000154CDE90346FFF7B1FA4EF6FF70009001
:1027A000CDE901541A486946CDE90346FFF7A6FA78
:1027B000F7200090CDE9015416486946CDE903465B
:1027C000FFF79CFA0921E8020090CDE90154CDE918
:1027D000034111486946FFF791FA4FF446400090D3
:1027E000CDE901540D486946CDE90346FFF786FA65
:1027F00000220521582000F0BFF8582000F0AFF863
:1028000006B070BD0068014044380240001002402C
:10281000002402400028024000180240002002402C
:1028200070B590F8A020012A18D00D4D012380F832
:10283000A030022280F8A120002450F8A02B566B73
:1028400026F001065663296050F8A01C4A6B42F03E
:1028500001024A6343700470204670BD022070BDBF
:102860004068014070470000F0B5154C4378211DC9
:102870000A1D23600378F3B143680B60057BC67AB9
:10288000817A437B2D07847B45EA0665C77B90F8F8
:1028900009C0067A90F800E045EAC14040EA83406A
:1028A00040EA444040EA074040EA0C2040EA460043
:1028B00040EA0E0001E0002008601060F0BD00005A
:1028C00098ED00E0BFF35F8F044800210368034ADE
:1028D00023F48033036070321160704724ED00E010
:1028E000074A40F00100064970321060086840F461
:1028F00080300860BFF34F8FBFF36F8F70470000C9
:1029000024ED00E00C4882B0016841F08051016084
:10291000006800F0805000900748001D016841F4F5
:1029200080410160006800220F2100F48040009087
:10293000901E02B000F020B84038024000280DDBA5
:10294000410900F01F028900012001F1E0219040BF
:10295000C1F88001BFF34F8FBFF36F8F704700281E
:1029600009DB410900F01F028900012001F1E0218B
:102970009040C1F8000170470E4BF0B41B680D4643
:10298000C3F30223C3F10706042E00D90426191D40
:10299000072901D2002300E0DB1E012404FA06F11E
:1029A0009C40491E2940641E994014402143F0BCBC
:1029B0000BF096BC0CED00E0064900F0070210B5E4
:1029C0004FF6FF040868044B204040EA02201843F9
:1029D000086010BD0CED00E00000FA051848F8B5DD
:1029E000016841F0805101600068164C00F0805091
:1029F0000090206840F480302060FFF777FA4FF4B1
:102A00007A76054605E000BFFFF770FA401BB0423A
:102A10000FD86068C003F7D5206840F4003020600C
:102A2000FFF764FA054606E0FFF760FA401BB04284
:102A300001D90320F8BD60688003F5D50020F8BDFA
:102A40004038024000700040F8B500250446FFF70A
:102A50004DFA064694F84100800736D5002084F8E8
:102A600040002068016849070BD5016821F0040186
:102A70000160E06BFEF75DFE18B1606C40F0040091
:102A800060642068016841F002010160A06C0122CD
:102A9000022133460090204602F064F8050014D16C
:102AA00021680220C8600022A06C202133460090DB
:102AB000204602F057F8050007D12068012142693D
:102AC00022F04062426184F841102846F8BD0000BF
:102AD0002DE9F84F1E4615468A460446FFF706FACA
:102AE000814694F8400001280ED001274FF00008DD
:102AF00084F8407094F84100012807D05FF002008C
:102B000084F84080BDE8F88F0220FBE74221C4F83A
:102B1000448084F84110002220214B462046009634
:102B200002F020F80028EBD121682868886221682B
:102B3000686848622168A868C862206829690268D4
:102B400022F4400242F4800211430160E9684FF030
:102B500000622046CAF82810514601F0C1FE012249
:102B60004B4608212046009601F0FCFF0028C7D103
:102B700022680821D16084F84170C1E72DE9F84F3F
:102B800017468B460446FFF7B1F9824694F8400099
:102B900001280ED001264FF0000884F8406094F818
:102BA0004100012807D0022584F840802846BDE86E
:102BB000F88F0220FBE74FF00209C4F8448084F844
:102BC00041900022202153462046009701F0CAFF81
:102BD0000500E9D100225946204601F081FEDBF8CC
:102BE000240058B90122534602212046009701F0E3
:102BF000B9FF0500D8D12168C1F80C9084F8416074
:102C0000D2E710B504000ED02068016821F0010160
:102C10000160204600F0A8F80020606484F84100BC
:102C200084F8400010BD012010BD0000F8B5044636
:102C3000FFF75CF9064624B194F84100002510B175
:102C400009E00120F8BD84F84050204600F0B0F8BB
:102C500041F28830A06420686FF0FF02A168036829
:102C600002EB012223F4F85111430160A06C002211
:102C7000202133460090204601F074FF30BBD4E998
:102C80000767226894F804C0E16813683143114E65
:102C900047EA0C6C104F41EA0C0133404FF0010E33
:102CA000194311602168D4E90526B4F810C04B68B7
:102CB00032433B4043EA0C431A434A6021680A68A6
:102CC00042F001020A60656484F841E084F84050F3
:102CD000F8BD00002FFFFF00FEF8E0FF2DE9F843EC
:102CE000164688460446FFF701F9034694F840006B
:102CF00001280ED0012084F84000002794F84100FC
:102D0000012808D05FF0020584F840702846BDE82D
:102D1000F8830220FBE7A06C8221676484F84110ED
:102D2000002220210090204601F01CFF0500EBD17D
:102D300020687268016821F0080111430160706821
:102D400008280AD122681021306810632068C16009
:102D50002068016841F4801101604FF040624146F3
:102D6000204601F0BDFDCFE710B500680B49884251
:102D700013D10B48016821F00201016009480421C8
:102D8000FEF70CFF08484421FEF708FFBDE810409D
:102D900006484FF46051FEF701BF10BD001000A0BF
:102DA000383802400010024000040240000C02408B
:102DB0002DE9F04387B0044614216846FDF7D0FAA8
:102DC0002B49206888424FD12A48016841F002010E
:102DD0000160006800F0020005902648083801688C
:102DE00041F010010160016801F0100105910168D6
:102DF00041F002010160016801F0020105910168E2
:102E000041F0080101600068092701AA4FF0040899
:102E100000F00800CDF80080022469460025CDE9C5
:102E200004700326144882E87000FEF767FF0A2149
:102E3000DFF848904020CDE903618DE83100694614
:102E40004846FEF75BFF01AACDF800806946484678
:102E500082E8F000FEF752FF4FF4605069468DE8BB
:102E6000F1000748FEF74AFF07B0BDE8F083000015
:102E7000001000A038380240001002400004024058
:102E8000000C02402DE9F84F15460F460446FFF7A7
:102E90002DF882462068816994F8403000F12009BD
:102EA000012B0DD001264FF0000884F8406094F803
:102EB0004120012A06D0022084F84080BDE8F88F26
:102EC0000220FBE7C4F84480BFB3222284F84120EB
:102ED0000269521CA2630269521C62632763426941
:102EE00022F0406242F080624261206881610EE01F
:102EF0000621204601F036FEE0B999F80000216B6A
:102F00000870206B401C2063A06B401EA063A06B68
:102F100053464FF0010200950028E9D14FF002011D
:102F2000204601F01FFE28B921680220C860204613
:102F3000FFF78AFD84F84160BEE7FFE7616C01207E
:102F400041F008016164B7E72DE9F84F15460F46D7
:102F50000446FEF7CBFF94F8401082462068012912
:102F600000F120090ED001264FF0000884F84060DF
:102F700094F84110012907D05FF0020084F84080E6
:102F8000BDE8F88F0220FBE7C4F844809FB312210C
:102F900084F841100169491CE1620169491CA16280
:102FA0006762416921F0406141610EE004212046E1
:102FB00001F0D8FDE0B9606A017889F80010606A14
:102FC000401C6062E06A401EE062E06A53464FF0D7
:102FD000010200950028E9D14FF00201204601F0DE
:102FE000C1FD28B921680220C8602046FFF72CFDEA
:102FF00084F84160C2E7FFE7616C012041F00801FD
:103000006164BBE72DE9F84F04460078DFF82494AB
:103010004FF000063746C0070ED0D9F8001021F453
:103020000001C9F80010D9F80010626B1143C9F80B
:103030000010606B00B90126FE4D20688435000346
:103040000ED5E16B286820F4401008432860E06B3F
:10305000B0F5801F01D010B102E0012600E0012789
:1030600020684FF4800BC0020CD5216C286820F436
:10307000400008432860206C584501D1012601E03A
:1030800000B901272068C10100D50126800666D558
:10309000E8483830016841F0805101600068DFF88D
:1030A00098A300F080500090DAF8001041F480718D
:1030B000CAF80010FEF71AFF804605E0FEF716FF7B
:1030C000A0EB080064287DD8DAF80000C005F5D52B
:1030D000DFF8608308F16808D8F8000010F4407049
:1030E0002AD0218E01F44071814225D0D8F80010F9
:1030F000D8F8002021F4407142F48032C8F8002052
:10310000D8F8002022F48032C8F80020C8F8001057
:10311000D8F80000C0070FD0FEF7E8FE824607E0AF
:10312000FEF7E4FEA0EB0A0141F288308142CAD8E2
:10313000D8F800008007F3D5206BC0F301210329E4
:103140007ED0D9F8001021F4F811C9F80010228EB1
:10315000D8F80010C2F30B021143C8F80010207811
:10316000C00607D5286820F0807028602868A16B09
:10317000084328602188AF488830490405D5626E2D
:10318000016821F44031114301602188090405D50B
:10319000A26E016821F44021114301602168C90336
:1031A00005D5E26E016821F44011114301602168E8
:1031B000890305D5226F016821F4400111430160A4
:1031C000217800E018E1490605D5626C016821F01C
:1031D0000301114301602178090605D5A26C01683D
:1031E00021F00C01114301602188C90505D5E26C6D
:1031F000016821F03001114301602188890505D55E
:10320000226D016821F0C001114301602188490548
:1032100005D5626D016821F4407111430160218878
:10322000090505D5A26D016821F4406111430160D3
:103230002188C90407D5E26D016821F4405100E0FE
:1032400041E0114301602188890405D5226E01689F
:1032500021F44041114301602168490205D5A26F64
:10326000016821F080611143016021684FF0006A1C
:10327000890209D5E26F016821F000611143016004
:10328000E16F514500D1012721680A0700D50127C8
:10329000490305D5626F016821F040711143016057
:1032A0002168090206D5D4F88020016821F08051F8
:1032B00011430160DFF88491012E0ED02068B0F137
:1032C000007F0AD08FE05E4AD9F80030104023F426
:1032D000F8120243C9F8002039E7D9F800004E4639
:1032E00020F08060C9F80000FEF700FE804605E08F
:1032F000FEF7FCFDA0EB080064287DD830680001D3
:10330000F6D421784B487C30C90712D0616B81B963
:10331000237A62680168D0F800C09201C1F30141CC
:1033200042EA0142CCF3036142EA016141EA0371DE
:10333000016021680A0303D5E26BB2F5801F04D057
:10334000C9021AD5216C594517D16368016894F8F0
:103350000CC002689B01C1F3014143EA0141C2F381
:10336000027241EA0C6141EA027101602968626AF5
:1033700021F01F01521E114329602168C90110D597
:10338000238A62680168D0F800C09201C1F303612A
:1033900042EA034242EA0162CCF3027142EA01715D
:1033A0000160216889010CD56168228A237B94F829
:1033B00008C0890141EA024141EA036141EA0C7116
:1033C00001603168B04641F080613160FEF78EFDEA
:1033D000064604E0FEF78AFD801B64280CD8D8F866
:1033E00000000001F6D56FB3D9F800004E4620F07A
:1033F0008050C9F8000000E079E0FEF777FD07464D
:1034000005E000BFFEF772FDC01B64286FD830686E
:10341000C0438000F6D50748216880300A0301D5F3
:10342000E26B1AB1C90225D5216C19BB6369016829
:10343000277E08E008380240007000400038024053
:10344000FFFCFF0F5AE00268C1F301419B0143EA10
:103450000143C2F3027143EA076242EA017101606B
:1034600029686FF0FF03A26A21F4F85103EB0222EE
:10347000114329602168890212D5E16F51450FD1AE
:10348000238C6269016807689201C1F3036142EA13
:10349000034242EA0162C7F3027142EA017101602C
:1034A0002178090716D561690268D0F800C08B0140
:1034B000277FC2F30362CCF3014143EA014141EAB1
:1034C000026141EA077101602868E16A20F4403036
:1034D00008432860306840F080503060FEF706FDF9
:1034E000044607E0FEF702FD001B642802D9032012
:1034F000BDE8F88F3068C0438000F3D40020F7E7C0
:103500002DE9F04705000F4663D0444E306800F0C7
:103510000F00B84209D2306820F00F003843306005
:10352000306800F00F00B84253D128683C4C810746
:1035300012D5400703D5206840F4E0502060287879
:10354000000703D5206840F460402060A968206827
:1035500020F0F000084320602878C0072AD03049C6
:1035600068680839012810D00968022810D0890736
:1035700000292EDA216821F0030101432160FEF7C2
:10358000B5FC804641F288390DE009688903EFE710
:103590008901EDE7FEF7AAFCA0EB0801494502D935
:1035A0000320BDE8F0876868216801F00C01B1EBE9
:1035B000800FEFD1306800F00F00B8420BD93068AF
:1035C00020F00F0038433060306800F00F00B84240
:1035D00001D00120E5E72878400705D5E968206893
:1035E00020F4E050084320602878000706D52869B9
:1035F000216821F4604141EAC000206000F048F8F1
:103600002168084AC1F30311515CC84006490860AB
:1036100006480068FEF706FF0020C2E7003C0240B3
:1036200008380240E8020108740000206C00002005
:103630000D4A0F2330B503604FF4E0540B4B15686F
:1036400005F003054560156805F0F005856015680F
:1036500005F4E055C560126804EAD20202611868F8
:1036600000F00F00086030BD08380240003C024006
:103670000449054809680068044AC1F38221515C85
:10368000C84070470838024074000020F802010862
:10369000154910B51548096811F00C0213D01449EA
:1036A000042A0FD0082A0ED10F4C241F2268236849
:1036B00002F03F025B0207D52068C0F38810A0FB30
:1036C000010106E0084610BD2168C1F38811A1FB85
:1036D00000010023FCF7FAFD2168C1F30141491CF8
:1036E0004900B0FBF1F010BD083802400024F4009E
:1036F00040787D012DE9F84F04004FF000076ED0AF
:103700002078DFF868A3AAF10408C007A8F104052F
:103710004CD0DAF800105046C1F38101012908D0DD
:103720000068C0F3810002280AD1D8F800004002E6
:1037300006D52868800339D560680028DFD035E0D9
:103740006068B0F5803F0BD010B1B0F5A02F11D05C
:10375000286820F480302860286820F4802002E067
:10376000286840F480302860606890B1FEF7BEFBA6
:1037700006460AE0286840F480202860F0E700BF91
:10378000FEF7B4FB801B642872D828688003F7D545
:103790000CE0FEF7ABFB064605E000BFFEF7A6FB1C
:1037A000801B6428F0D828688003F7D4207880072D
:1037B00042D5DAF80010504611F00C0F08D000681E
:1037C000C0F3810002280BD1D8F80000400207D4D2
:1037D0002868800718D5E068012800D114E041E18D
:1037E000E0680028286817D040F001002860FEF744
:1037F0007DFB064605E000BFFEF778FB801B022834
:10380000C2D828688007F7D52069296821F0F80117
:1038100041EAC00028600FE020F001002860FEF7B8
:1038200065FB064605E000BFFEF760FB801B022833
:103830001ED828688007F7D42078000729D58B4840
:1038400061696C3000298146016812D041F00101A4
:103850000160FEF74BFB064605E000BFFEF746FBA6
:10386000801B022804D8D9F800008007F6D510E0A4
:1038700089E021F001010160FEF738FB064604E013
:10388000FEF734FB801B02287DD8D9F800008007A2
:10389000F6D4207840076BD5DFF8D09109F13809CC
:1038A000D9F80000C0000BD4D9F8001041F08051C5
:1038B000C9F80010D9F80000012700F080500090EE
:1038C0006B480168C90512D40168834641F48071D0
:1038D0000160FEF70BFB064605E000BFFEF706FBA6
:1038E000801B64284FD8DBF80000C005F6D55F4E7A
:1038F000A068683601280AD008B1052811D03068C0
:1039000020F001003060306820F0040002E03068F0
:1039100040F001003060A068A0B1FEF7E7FA8346EE
:103920000CE0306840F004003060F0E7FEF7DEFAAB
:10393000A0EB0B0141F28830814266D830688007E5
:10394000F4D50EE0FEF7D2FA834607E0FEF7CEFA92
:10395000A0EB0B0141F28830814256D830688007D5
:10396000F4D42FB1D9F8001021F08051C9F800101B
:10397000A069C8B3DAF80010C1F3810102294BD065
:103980000228286800E040E020F08070286003D022
:10399000FEF7ACFA04463BE0FEF7A8FA064604E060
:1039A000FEF7A4FA801B02282FD828688001F7D4DC
:1039B000D4E90962D4E907012E4B570894F82C206A
:1039C000084303EB074343EA8611084340EA0260D9
:1039D00040F00050C8F80000286840F0807028606F
:1039E000FEF784FA044606E03EE000BFFEF77EFAEA
:1039F000001B022809D828688001F7D534E000BFF1
:103A0000FEF774FA001B022802D90320BDE8F88FE4
:103A100028688001F4D427E00128D8F8000021D0DC
:103A2000E16900F480028A421CD1216A00F03F0261
:103A30008A4217D1626A47F6C0710140B1EB821F1A
:103A400010D1A16A4FF0FF3200F4403302EB510174
:103A5000B3EB014F06D194F82C1000F07060B0EB7E
:103A6000016F01D00120D1E70020CFE708380240E4
:103A7000007000400000FFFF70B504000D4603D049
:103A800094F82C0010B107E0012070BD002084F8EC
:103A90002D00204600F011F8022084F82C00206848
:103AA000211DFDF739F9D4E900022946FDF77AF91D
:103AB000012084F82C00002070BDFEF715B810B569
:103AC000044690F82C00022809D0022084F82C002B
:103AD0002068FDF750F9012084F82C00002010BD6B
:103AE00070B5044690F82C000D4602280DD0022037
:103AF00084F82C002068FDF744F92868022805D0D6
:103B00005FF0010084F82C00002070BD0520F9E76B
:103B100070477047704700002DE9F04390F83C2053
:103B2000012A42D0012280F83C2051F80C4BDFF8EA
:103B300080804FF0000991E8680051E9022723F4E2
:103B40004073B1F80CC03B43CF6923F48063134347
:103B5000026823F40063234323F4805343EA0503FC
:103B600023F4005343EA060323F4804343EA0703A4
:103B70000C3923F47023424543EA0C4302D00D4C28
:103B8000A2420CD18D8C23F47006D1E9073446EAA9
:103B9000055121F08071194321F0007323435364D0
:103BA00080F83C900020BDE8F0830220FBE7000095
:103BB0000000014000040140F0B590F83C20012ACB
:103BC0003BD01F4E012480F83C40022280F83D206B
:103BD00002681C4D5368B242D2F808C001D0AA4214
:103BE00003D14F6823F470033B430F6823F0700345
:103BF0001F4357600268B24213D0B2F1804F10D019
:103C0000114B9A420DD0114B9A420AD0104B9A4256
:103C100007D0AA4205D00F4B9A4202D00E4B9A42CF
:103C200004D189682CF0800319439160002180F849
:103C30003D4080F83C100846F0BD0220F0BD000079
:103C40000000014000040140000400400008004062
:103C5000000C0040004001400018004010B5040076
:103C600003D094F83D0010B107E0012010BD002002
:103C700084F83C00204600F00CF8022084F83D0057
:103C80002068211D01F082F8012084F83D00002009
:103C900010BD70470168094ACB6843F00103CB604F
:103CA000016888681040062806D0B0F5803F03D030
:103CB000086840F00100086000207047070001001C
:103CC000704770B50446006800250169C94389073B
:103CD00015D4C168C943890711D4EA1E02610121C4
:103CE0002177206880698007204602D0FFF7E8FF2F
:103CF00004E000F0E0F8204600F00EF92577206897
:103D00000169C943490717D4C168C943490713D496
:103D100002216FF00402026121772068806910F4AB
:103D2000407F204602D0FFF7CBFF04E000F0C3F84D
:103D3000204600F0F1F8257720680169C94309079A
:103D400016D4C168C943090712D404216FF00802D0
:103D5000026121772068C0698007204602D0FFF702
:103D6000AFFF04E000F0A7F8204600F0D5F8257773
:103D700020680169C943C90617D4C168C943C90687
:103D800013D408216FF01002026121772068C06906
:103D900010F4407F204602D0FFF792FF04E000F0CD
:103DA0008AF8204600F0B8F8257720680169C943F1
:103DB000C90708D1C168C943C90704D1891E016177
:103DC000204600F0ABF820680169C943090609D410
:103DD000C168C943090605D46FF08001016120461E
:103DE000FFF797FE20680169C943C90509D4C16876
:103DF000C943090605D46FF4807101612046FFF7BD
:103E000087FE20680169C943490609D4C168C943CE
:103E1000490605D46FF040010161204600F088F8A2
:103E200020680169C94389060BD4C168C943890662
:103E300007D46FF0200101612046BDE87040FFF714
:103E400069BE70BD70B5044690F83C0001280ED0E4
:103E5000012584F83C50022084F83D000C2A19D03A
:103E600007DC5AB1042A0DD0082A1ED10EE0022028
:103E700070BD102A12D0142A17D113E0206800F068
:103E8000EBFF12E0206801F021F80EE0206801F05D
:103E900059F80AE0206801F091F806E0206801F086
:103EA000B9F802E0206801F0E1F8002084F83D5004
:103EB00084F83C0070BD704710B5040003D094F83E
:103EC0003D0010B107E0012010BD002084F83C0047
:103ED000204600F00DF8022084F83D002068211DE6
:103EE00000F054FF012084F83D00002010BD0000C8
:103EF00008B500680649884208D10648016841F0C3
:103F000001010160006800F00100009008BD0000A0
:103F10000000014044380240704700000068034937
:103F2000884201D1FEF760BA7047000000100040DF
:103F30007047FEE701688A69D243920701D40022E4
:103F40008A6200688169C943C90703D0816941F069
:103F500001018161704700002DE9F04104460068CD
:103F600090460E468069C043C00635D40025202700
:103F700020688069C043800616D5701CF8D0FDF714
:103F8000B5FFA0EB0800B04201D8002EF0D1606C64
:103F900084F8405040F02000606484F8417084F858
:103FA00042500120BDE8F08121681020C8612068DE
:103FB000C7612046FFF7BEFF2068084942680A40F3
:103FC0004260606C40F00400606484F8417084F8E2
:103FD000425084F84050E4E70020E3E700E800FEA8
:103FE0002DE9F843174604461548DAB2DDE908988A
:103FF0001E4600900023204600F056F842464946EF
:10400000204600F0BBF8B8B9012EFDB208D02068F8
:10401000390A816242464946204600F0AFF858B955
:1040200020688562002240214B462046CDF8008062
:1040300000F050F8002800D00120BDE8F88300000F
:10404000002000802DE9F8430446164817461E4616
:10405000DAB20090C3022046DDE9089800F024F8A7
:1040600042464946204600F089F8B8B9012EFDB213
:1040700008D02068390A816242464946204600F04D
:104080007DF858B920688562002280214B46204681
:10409000CDF8008000F01EF8002800D00120BDE817
:1040A000F88300000020008070B50068C1F30901AA
:1040B000074E41EA0241049C4FF48065426819436F
:1040C00005EA54553543AA4321430A43426070BD73
:1040D000FF63FF032DE9F0411D4617460E460446D7
:1040E000DDF8188008E0681C06D0FDF7FFFEA0EBA5
:1040F0000800A8420BD855B12068806936EA000054
:1041000013D00020B842EED00020BDE8F081626CF0
:10411000002084F84000202142F02002626484F8EC
:10412000411084F842000120EFE70120EAE770B572
:1041300016460D4604460DE0324629462046FFF756
:104140000BFF08B1012070BDFDF7D0FE801BA84217
:1041500007D835B120688069C0438006ECD40020C0
:1041600070BD626C002084F84000202142F02002E3
:10417000626484F8411084F84200E3E770B51646A3
:104180000D4604460FE0324629462046FFF7E4FE7E
:1041900008B1012070BD681C05D0FDF7A7FE801B8B
:1041A000A84207D835B120688069C0438007EAD4A7
:1041B000002070BD626C002084F84000202142F095
:1041C0002002626484F8411084F84200E1E70000B4
:1041D0000549002810B5086801D0012100E0002140
:1041E00003F0A1FD012010BD540200200148FEF79C
:1041F0007DB90000A41000202DE9FE4F8146006823
:10420000882493468D888C2204EBCB178A46C3689A
:104210009421BE46C459C3F30B432B4404F47044A9
:104220001F04019702EBCB1240F80E4001EBCB13B9
:10423000DAF800709C214FF0AC0C01EBCB1440F28B
:10424000077102910CEBCB11D9F800C09825002022
:10425000CDF800C0A02605EBCB15DCF80CC006EBB2
:10426000CB16CCF30B4C0CF1010C07EB0C08DDF872
:1042700000C0019F48EA07084CF80E80D9F800708A
:10428000BAF80CC0B846FF68C7F30A0767444FEA9C
:10429000074E58F8027007F4704C48F802C0D9F87D
:1042A00000C0DAF80870DCF80C80C8F30A0808F1DE
:1042B0000108B84448EA0E084CF80280D9F80020FA
:1042C000D75827F00707D750D9F80070DAF8102030
:1042D000FA509AF831209AF818304FEA022C9AF8DE
:1042E0003220120442EA0362D9F800301F591851F3
:1042F0009AF8303043EA0C031343D9F800201351E5
:10430000D9F80020535923F0FF035351D9F8002066
:10431000DAF814305351D9F800209359029CA34382
:104320009351D9F80030DAE9072422439A51D9F899
:10433000002053585050D9F80020DAF8240050508B
:10434000DAF81000C8B301283AD004283AD002287D
:1043500038D0032836D0072834D00120D9F80030CF
:10436000B02505EBCB11B42284245D5802EBCB12AF
:1043700005F0E0255D50DAE9003504EBCB14EB1ACB
:10438000BAF8285043434543D9F80000DB1C43EA00
:1043900005434350D9F8000081586FF30A0181505A
:1043A000D9F80000DAF82C108150D9F80000015932
:1043B00041F001010151BDE8FE8FFFE70420CDE788
:1043C0000320CBE70220C9E72DE9FF410024009438
:1043D000019402940394FEF775FA1B208DF80800EF
:1043E0008DF8094001258DF8005003278DF80A400B
:1043F0004FF0104668468DF8014001968DF80B701D
:104400000394FEF731FA17208DF808008DF80C4060
:1044100068468DF809408DF80D408DF800508DF8F4
:104420000A408DF80E508DF8015001968DF80B70F2
:104430008DF80F40FEF718FA0420FEF751FABDE898
:10444000FF8100007FB513480024114E0125009420
:104450004FF480330194029419030394F20206602E
:104460000561C0E90134846180F82040C561C46001
:10447000C0E90A2180F830504461FCF7B8FD0548D6
:104480006946CDE900450294FCF7D2FC7FBD0000EF
:1044900000200140AC0F00202DE9F04F89B01C2115
:1044A0006846FBF75DFF32480025304A402310265E
:1044B0004FF0040907214FF0030AC0E90025C0E9C5
:1044C00004635B014FF4C0728261C0E902595A0073
:1044D000C0E90753C0E909250227CDE90071CDE9FC
:1044E0000291CDE904A769460697FFF7C5FA204C6B
:1044F0004FF0010807954FF6FF7B34341C485A46AD
:104500002146C4E90086C4E90285FFF7E9FA0120E3
:10451000FDF7D8FAC4E9028515485A46C4E9007681
:104520002146FFF7DDFA08211148C4E90215C4E964
:1045300000A65A462146FFF7D3FA4FF40C700790B5
:104540005A462146C4E902800948C4E90096FFF7AB
:10455000C7FA074840F22B71FFF7B1FA4FF020413C
:1045600043F2D200086009B0BDE8F08F400100A01E
:10457000D8110020F0B587B014216846FBF7F0FE93
:104580004048016841F010010160016801F010012C
:104590000591016841F001010160016801F001012C
:1045A0000591016841F002010160016801F002011A
:1045B0000591016841F040010160016801F040018E
:1045C0000591016841F400710160016801F4007116
:1045D0000591016841F008010160016801F00801DE
:1045E0000591016841F480610160016801F4806116
:1045F0000591016841F020010160016801F020018E
:104600000591016841F480710160016801F48071D5
:104610000591016841F080010160016801F08001AD
:104620000591016841F00401016000680122164E05
:10463000082100F0040005903046FDF751FC134FAF
:10464000002202213846FDF74BFC012238461103B7
:10465000FDF746FC00246946012508200090CDE9BD
:10466000015430460394FDF749FB41F202000090EB
:10467000CDE90154694638460394FDF73FFB07B086
:10468000F0BD000030380240002802400020024007
:104690000E48002110B50C4C01230D4A0460C0E9FE
:1046A0000121C0E9033141618161C1610162FDF70E
:1046B00093FC06480021FDF71FFCBDE810400348AD
:1046C0000021FDF745BC0000005C004058100020B0
:1046D000FFEAC000F0B58DB034216846FBF740FE1C
:1046E000214800241F4D2821092240F21526352398
:1046F00040F21B1705600B25446040F2352C8460A6
:1047000040F21D1EC4600461143080E8EE5080F851
:10471000204080F8214080F822401438FDF74AFFFD
:104720004FF4F0704FF488714506CDE90040CDE9B3
:104730000A010227049707A87A020523CDE902415E
:1047400080E82C00FF260848CDE905648DF830404C
:1047500000228DF8314069468DF83240FDF79CFE0D
:104760000DB0F0BD00680140A41000202DE9F0411B
:104770000C4B00210C48012404255A0D1026C0E9D9
:104780000521C1611827016280E8F800FEF74EFAA2
:10479000FCF70CF9FCF7E6F8BDE8F0415C20FEF709
:1047A000CDB80000001000A04C11002030B595B02D
:1047B00000241C210BA8129413941494FBF7D0FD31
:1047C0002C216846FBF7CCFD1B486321802242F276
:1047D0000F73184DC0E902410461C0E90542C0E908
:1047E0000053FFF769FB20201494CDE9120412480E
:1047F00012A9FFF7E1F90B9400220C940BA90E48C3
:104800000D940E940F9410941194FFF71BFB6814F1
:104810000094019401030294CDE9044003940694AA
:10482000CDE907410448694609940A94FFF774F9F1
:1048300015B030BD00000140981100200AF076BB91
:104840000AF0B0BBFEE7704705490A22054810B5DB
:10485000FCF744FCBDE810400348FFF71BBA00001A
:10486000980F0020AC0F00209811002070B5084C64
:104870000020084D20800848FCF7B6FB21884A1C20
:1048800025F8110090B220800A28F4D370BD0000F2
:104890001C000020980F0020AC0F002070B594B0D1
:1048A000012300221C061E0205250695CDE90E24D3
:1048B000CDE90C620B921024CDE9002311929D05E5
:1048C0001292139205950294CDE903320B466A4683
:1048D00006A9FEF7FDF8002800D0012014B070BD35
:1048E0002DE9F0434B6A4FF040652BB1AA4203D04B
:1048F00004688B6A5B1E23618B69002B68D00C6A8D
:10490000B4B303688C68DC61CC69FCB1D1E90B38C5
:10491000D1F824C04E6B8F8A43EA080346EA0C069E
:1049200033430E6A43EA8743D1E9037C43EA0C032D
:1049300033438E693B430F682343046833433B434F
:1049400065E0006849688161BDE8F083D1E90B3614
:104950004F6A4C6B8D8A33433C430E6923430C6A88
:1049600043EA85438D693343096823432B4362E05F
:10497000FFE7CC69B4F1000918D0D1E90B484F6AC0
:104980004E6BB1F814C044EA08043E430F68344348
:10499000CE6844EA8C44344344EA09041C43036867
:1049A0003C431443AA425C61CBD1CDE7D1E90B462D
:1049B0004F6A4D6BB1F814C034433D4300682C433B
:1049C000096844EA8C441C430C4314434461BBE72C
:1049D0000B6AABB303688C68DC61CC69E4B1D1E9E4
:1049E0000B38D1F824C04E6B8F8A43EA080346EA9D
:1049F0000C0633430E6A43EA8743D1E9037C43EA5A
:104A00000C0333438E693B4323430468334313430E
:104A1000AA42636195D197E7D1E90B364F6A4C6B97
:104A20008D8A33433C430E6923430C6A43EA854332
:104A300089693343234300680B431343436183E78E
:104A4000FFE7CC6984B1D1E90B384F6A4E6BB1F8FE
:104A500014C043EA08033E433343CE6843EA8C4321
:104A6000334323430468D2E74C6A002C9DD0D1E93C
:104A70000B368F8A4D6B0168334325432B4343EA42
:104A80008740104348615FE730B58FB0054600218D
:104A90004FF480748523009320040694012205912D
:104AA000CDE90A21CDE9081041F288340791224668
:104AB00028460C910D916946FEF760F830BB0EA9AF
:104AC00022462846FEF7DEF900BB284600F06EF8C5
:104AD000E0B9F0208121009190FAA0F29DF8380011
:104AE0000A21B2FA82F220F0F000914008432246F7
:104AF00069468DF838002846FEF740F830B90EA90F
:104B000022462846FEF720FA002800D001200FB0E8
:104B100030BD30B58FB00546002141F288344FF4E6
:104B2000807266200090CDE9062108912246284631
:104B3000099105910B910C910D916946FEF71EF8B4
:104B400068B999202246694600902846FEF716F873
:104B500028B921462846FFF7A1FE002800D00120F1
:104B60000FB030BD2DE9F041984616460F46044679
:104B7000069D08E0681C06D0FDF7B8F9A0EB080018
:104B8000A8420AD84DB120688068384000D0012082
:104B9000B042EFD10020BDE8F081042084F841004C
:104BA000606C40F0010060640120F4E7F0B595B05E
:104BB0000646002441F288354FF480712A460620CB
:104BC0000690CDE90C140E9406A930460F940B9470
:104BD000119412941394FDF7D1FFB8B902204FF04D
:104BE000807CCDF83CC04305009010220121039148
:104BF000CDE9044305270697CDE9010206A92B4616
:104C00006A463046FDF764FF002800D0012015B049
:104C1000F0BDFFF719FEFFF729FE012009F02AFE7B
:104C2000F9E70000044C02212046FDF753F9C820A3
:104C300009F020FEF7E7000000200240FFF700FE29
:104C4000012009F017FEFBE772B6502010B580F383
:104C50001188BFF34F8FBFF36F8F62B60AF07CFFEE
:104C600018B104494FF080500860002080F311888B
:104C700010BD000004ED00E070B5B4B0302121A8F3
:104C8000FBF76EFB14212DA8FBF76AFB8421684615
:104C9000FBF766FB2248016841F080510160006823
:104CA00000F0805032901F48016841F4404101609B
:104CB00000680224192200F440403290E0031301FE
:104CC00081010126CDE9274129A981E81C002C9406
:104CD000CDE9216021A8FEF70DFDFDF77FFEE20280
:104CE0004FF4A0510025CDE930122DAA0F20062146
:104CF00082E831002DA8FEF703FC0B4A0521009243
:104D00002304CDE907154FF4C0701B95CDE90504C8
:104D1000CDE90A636846FEF775F934B070BD00004E
:104D2000403802400070004008000100104A30B5D1
:104D30001048146800210F4B44F4700414600833C9
:104D400005680D4A0D4C45F00105056019600368C2
:104D5000051D1340074A03600C322C600568E3050B
:104D6000034C25F480250560803C1160236030BD34
:104D700088ED00E000380240FFFFF6FE103000240E
:104D80000148FEF79EBF00007C120020F0B5274BC3
:104D90004FF0804E264D02689842264E264F274CF3
:104DA00009D0704507D0A84205D0B04203D0B84220
:104DB00001D0A04205D1D1F804C022F070024CEA23
:104DC000020298421BD0704519D0A84217D0B042B9
:104DD00015D0B84213D0A04211D0194DA8420ED020
:104DE000184DA8420BD0184DA84208D0174DA84224
:104DF00005D0174DA84202D0164DA84203D1CD6868
:104E000022F440722A434D6922F080022A43026054
:104E100098428A68C2620A68826201D0A04201D1C7
:104E20000969016301214161F0BD000000000140FA
:104E30000004004000080040000C00400004014055
:104E4000004001400044014000480140001800407B
:104E5000001C004000200040F0B5026ADFF860C08E
:104E6000184F22F00102DFF860E00262066A426831
:104E7000836926F002060D68B8428C6803EA0C03C9
:104E800023F0030344EA060445EA030501D0704514
:104E900005D1CB6824F00804234323F00404B8426E
:104EA00001D0704505D122F44076D1E90532334373
:104EB0001A4342608561496841630462F0BD0000A5
:104EC0008FFFFEFF0000014000040140F0B5026AC0
:104ED000194E1A4C22F01002DFF864E00262056AF3
:104EE0004368826925F02005D1F808C0A0420F6808
:104EF00002EA060222F4407245EA0C1542EA072251
:104F000001D0704506D1CE6825F0800545EA06152A
:104F100025F04005A04201D0704507D1D1E90546F2
:104F200023F4406343EA840343EA860343608261D7
:104F3000496881630562F0BDFF8FFFFE00000140FC
:104F400000040140F0B5026A194F1A4E22F4807233
:104F5000DFF864E00262056A4368C26925F40075FF
:104F6000D1F808C0B0420C6802EA070222F003023E
:104F700045EA0C2544EA020401D0704506D1CF6809
:104F800025F4006242EA072222F48065B04201D093
:104F9000704507D123F44052D1E9053642EA0312A5
:104FA00042EA06134360C4614968C1630562F0BD0B
:104FB0008FFFFEFF0000014000040140F0B5026ACF
:104FC000124B114F22F4805298420262046A4268E6
:104FD000C36924F400548E680D6803EA070323F4C0
:104FE000407344EA063443EA052302D0084DA84240
:104FF00004D14D6922F4804242EA85124260C361C5
:10500000496801640462F0BDFF8FFFFE00000140AB
:1050100000040140F0B5026ADFF844C022F4803297
:105020000262056A4268446D25F400350E896045C8
:105030000C4F0B6804EA070445EA064543EA0403FB
:1050400002D0094CA04204D14C6922F4803242EAD9
:10505000042242604365496881650562F0BD000035
:10506000000001408FFFFEFF00040140F0B5026A1E
:10507000DFF844C022F480120262046A4268436D81
:1050800024F400140E8960450C4F0D6803EA0703F1
:1050900044EA065443EA052302D0094DA84204D14C
:1050A0004D6922F4802242EA8522426043654968C4
:1050B000C1650462F0BD000000000140FF8FFFFEEB
:1050C000000401407FB50A460B4C00218DF80C10FE
:1050D0000146012003AD03464FF47A760296CDE9EE
:1050E00000502046FCF7D4FF10B12046FCF75AFFD1
:1050F0009DF80C0004B070BD5810002077B50A462A
:1051000001460120094C83B0034605AD4FF47A7681
:10511000CDE9005020460296FDF76CF8002802D039
:105120002046FCF73FFF06B070BD0000581000207D
:10513000FEE7002809DB410900F01F028900012079
:1051400001F1E0219040C1F80001704730B50468DA
:10515000256825F440350D43256001684C6B24F02B
:10516000070414434C630068016C6FF30D0119438D
:105170000164002030BD00280DDB410900F01F0252
:105180008900012001F1E0219040C1F88001BFF3C6
:105190004F8FBFF36F8F7047090700284FEA1161E7
:1051A00004DB00F1E02080F80014704700F00F00ED
:1051B00000F1E02080F8141D7047000010B500F0E9
:1051C000B5F804480068406801684969BDE81040C6
:1051D0000847000054020020AFF30080144800B5D7
:1051E0008BB00078C0071FD1114809F09CF8D8B1E6
:1051F0003F2210490020099008900A23CDE90612A9
:105200000D490122CDE90220CDE904010421CDE9B7
:1052100000010A490A4802F0CDF80A4A0A49FBF798
:10522000BBF80348AFF300800BB0054800BD000099
:10523000E40000202C88010824030108D886010816
:10524000F813012000000008F9730008144800B5A5
:105250008BB00078C00720D1114809F064F8E0B1A4
:105260003F221049104B00200890CDE9061204227D
:10527000009201210990CDE90403029114230391C6
:105280000A490B480192162202F094F8094A0A4989
:10529000FBF782F80248AFF300800BB0044800BD72
:1052A000E80000203088010828030108E88601088A
:1052B0001C14012000000008F9730008144800B510
:1052C0008BB00078C0071FD1114809F02CF8D8B175
:1052D0003F2210490020099008902823CDE90612AA
:1052E0000D490122CDE90220CDE904010421CDE9D7
:1052F00000010A490A4802F05DF80A4A0A49FBF728
:105300004BF80348AFF300800BB0054800BD000028
:10531000EC000020348801082C0301081C880108D7
:105320004014012000000008F97300080E49002015
:1053300070B50860BFF34F8F081F43F6FF73006816
:105340000A4DC0F34E31C0F3C90203EA41141046BE
:1053500044EA80762E60401EFAD2491EF5D2BFF391
:105360004F8FBFF36F8F70BD84ED00E074EF00E0EE
:1053700010B5094C074820602046FCF75DF9074846
:1053800008492061064860614FF08060C1F8000163
:1053900010BD000000B0024018100020BD510008F0
:1053A000D951000808E000E040F2EF10704700001B
:1053B0002DE9FC47086800264FF400370C462028EA
:1053C0000DD040280BD0042809D000218028894620
:1053D0004FF4807A01D0504503D1012002E0012131
:1053E000F4E70020804602F005FE0168C96988479D
:1053F00005462068402815D004DC04280AD020285F
:105400000BD10FE0802803D0504506D1092609E0D2
:105410000A2607E0102D1AD003E0102D4FF00007E8
:1054200015D001264748102D476013D04FF00101D9
:105430008160E18A8246228AA1EB0201C160E08A92
:10544000218AA0EB010308D14FF0020207E04FF0E0
:105450000206E7E74FF00201EAE74FF001023948A0
:105460003946FFF773FECAF82C6049EA0800228A21
:105470005FEA0009A08A5146A0EB0200CAF82800A2
:1054800021D0207FFF2804D202200863207F4863B8
:1054900001E000200863B8F1000F06D0102D27D0DE
:1054A000227FA06940EA02604863E08A102D228AC8
:1054B000A0EB0200886139D00120CAF81C00214805
:1054C0000021FBF79FFF1F480121FBF79BFFFFF720
:1054D0002DFFB9F1000F2BD0618A208ACDE90001A0
:1054E000E268184861681346FBF730FFBDE8FC87A7
:1054F000208B1F233F26227FC0F3C427C0F3451C07
:10550000C7EB0727B7FBF3F700F01F00CCEB0C2C21
:10551000BCFBF6F6C0EB0020B0FBF3F0120642EA4B
:10552000074242EA062202434A63BEE70220C4E77A
:10553000608A0090238A0348E2686168FCF7DAF821
:10554000D4E70000181000202DE9FC470C4602F0BB
:1055500051FD0168C96988471028064625D000BF5B
:105560004FF00100814623D1208B4FF01F024FF0F6
:105570003F03217FC0F3C425C0F34517C5EB0525C4
:10558000B5FBF2F500F01F00C7EB0727B7FBF3F3FD
:10559000C0EB0020B0FBF2F04FEA016141EA0541A7
:1055A00041EA032747EA000706E04FF00200D9E787
:1055B000217FA06940EA016720684FF4003A08287B
:1055C00017D04FF440352F48102E456013D000BF40
:1055D0004FF001018160E18A8046228AA1EB02013D
:1055E000C160E08A218AA0EB010307D14FF00202DB
:1055F00006E05546E7E74FF00201EBE74FF0010206
:1056000020482946FFF7A2FD5545404617D100F135
:105610002C030122092183E88600E18A102E228AC8
:10562000A1EB0201816108D05FF001011548C8F8C3
:105630001C100021FBF7E6FE06E00221F6E7C0F8A9
:105640002C900022C8F8282001210E48FBF7DAFE32
:10565000FFF76CFE55450BD1618A208ACDE9000128
:10566000E16808480B460A46FBF770FEBDE8FC8778
:10567000608A39460090238A0248E268FCF73AF8CB
:10568000F4E70000181000200168896A084700004C
:1056900010B500F10C014160002202720B4642720B
:1056A00007496022016000F12001184602F038F835
:1056B000044960232022143008F023FE203810BD56
:1056C000840301086195000810B50446074820606E
:1056D0000748FBF7E7FE07494FF08060C1F88001FB
:1056E000BFF34F8FBFF36F8F204610BD84030108B7
:1056F0001810002008E000E000F086B970B50446FC
:105700000D4600F514700A220646C9B204F05CFC8E
:105710002846FAF7CAFE9FED0A1B53EC112BFAF745
:1057200052FEFAF707FF00EE100A1421304606A2D7
:1057300005F00CF904F1A000BDE8704008F04DBB85
:105740004A0E047B66664A3F252E32660000000042
:10575000704700002DE9F04706460F460846FAF765
:10576000A4FE8946804649EC100B9FED3B1B51EC93
:10577000100B53EC112BFAF726FEFAF7C2FE384C49
:10578000B7F5006F9FED371B4FF0FF05A0600CD8F9
:1057900049EC108B53EC112B51EC100B6580FAF790
:1057A00012FEFAF78FFEA0800DE049EC108B53EC4F
:1057B000112B51EC100BFAF706FEFAF783FEC0F539
:1057C000FF706080A58006F5FA752848A1782279D7
:1057D0002378D0F800C0BCF1000F06D09CF876000A
:1057E00028B1DCF84C0020B901E0AFF30080DCF810
:1057F0000800D0F800C0DCF828C0E047A88200F418
:105800007841E98200F4FC6200F01F0C2A8306F163
:10581000E0002946A5F81AC0054601F025F806F56E
:105820001970F9B207460A2204F0CEFB94ED020A81
:10583000142138460EA2B8EE400A05F087F8A16898
:10584000284601F06BF806F5047008F0C6FA284601
:10585000BDE8F04708F0C1BA000000000000993F21
:10586000D80000200000000000E0BF3F54020020EC
:10587000252E30662025000010B500F0C7F801493C
:10588000016010BDD4030108094910B5016000F59D
:10589000047002F035F9A0F59871064AA0F5B870C9
:1058A0000A6002F02DF9044940F8A01D10BD000067
:1058B000DC040108C4090108180D010870B504468C
:1058C00000F00CFA20680A4A084B456F1105204683
:1058D000A847002084F84A00064802F0C9F90548A4
:1058E0002061012084F86C0070BD000000F807C042
:1058F00000FC03C07C02002000F008BA70B500F084
:105900000EFA0E4900200860BFF34F8F081F43F6C0
:10591000FF7300680A4DC0F34E31C0F3C90203EAB9
:105920004114104644EA80762E60401EFAD2491E89
:10593000F5D2BFF34F8FBFF36F8F70BD84ED00E0E2
:1059400074EF00E000F0EDB900F0F4B900F0FCB93C
:1059500000F006BA00F022BA7047000070B5061DCC
:1059600041F6CC61451841F6E4640319036100F186
:105970002C0200F1140186E82600114A0260084654
:1059800001F07EFE0F4940F8181B01F079FE0E4928
:10599000016000F5F55001F073FE0C4940F8141B4E
:1059A00000F096FAA0F5F75000F5F75102462044B2
:1059B00000F06AF9051B281900F0F4F9284670BDBB
:1059C000C80401087412010840120108A812010855
:1059D000094910B5016041F6E461084400F040FA5D
:1059E000183801F055FEA0F5F55001F051FE1838B9
:1059F00001F04EFE143810BDC8040108004870477D
:105A00000003010801207047704700002DE9FF479F
:105A100004F06AFA78490027C76340F8401B02F097
:105A200043F9303002F040F9303002F047F84030AE
:105A300000F0AEFFFF22394600F58A7001F03CFD10
:105A40001C3002F03BF8A0F504744FF4E1516830CB
:105A500001F074FE00224FF4F078114604F140008A
:105A600043464FF488758146009505F053FB0022AC
:105A70004E461146104603F099FC0022B06204F134
:105A80007000434611468046009505F043FB002216
:105A900045465C20114603F089FCA86204F1A00091
:105AA00050220646942105F09DFBFF221146104628
:105AB00003F07CFC3063012101A8B78607F078FB76
:105AC00008F0FAFB034604F514700A2105464BA2C0
:105AD00005F0E2F93046C4F8DC5007F078FA00210E
